{
  "contractName": "NomadNft",
  "abi": [
    {
      "anonymous": false,
      "inputs": [
        {
          "indexed": false,
          "internalType": "uint256",
          "name": "id",
          "type": "uint256"
        },
        {
          "indexed": false,
          "internalType": "string",
          "name": "hash",
          "type": "string"
        },
        {
          "indexed": false,
          "internalType": "string",
          "name": "title",
          "type": "string"
        },
        {
          "indexed": false,
          "internalType": "string",
          "name": "text",
          "type": "string"
        },
        {
          "indexed": false,
          "internalType": "string",
          "name": "date",
          "type": "string"
        },
        {
          "indexed": false,
          "internalType": "string",
          "name": "collectionName",
          "type": "string"
        },
        {
          "indexed": false,
          "internalType": "uint256",
          "name": "tipAmount",
          "type": "uint256"
        },
        {
          "indexed": false,
          "internalType": "address payable",
          "name": "author",
          "type": "address"
        }
      ],
      "name": "NftBought",
      "type": "event"
    },
    {
      "anonymous": false,
      "inputs": [
        {
          "indexed": false,
          "internalType": "uint256",
          "name": "id",
          "type": "uint256"
        },
        {
          "indexed": false,
          "internalType": "string",
          "name": "hash",
          "type": "string"
        },
        {
          "indexed": false,
          "internalType": "string",
          "name": "title",
          "type": "string"
        },
        {
          "indexed": false,
          "internalType": "string",
          "name": "text",
          "type": "string"
        },
        {
          "indexed": false,
          "internalType": "string",
          "name": "date",
          "type": "string"
        },
        {
          "indexed": false,
          "internalType": "string",
          "name": "collectionName",
          "type": "string"
        },
        {
          "indexed": false,
          "internalType": "uint256",
          "name": "tipAmount",
          "type": "uint256"
        },
        {
          "indexed": false,
          "internalType": "address payable",
          "name": "author",
          "type": "address"
        }
      ],
      "name": "NftCreated",
      "type": "event"
    },
    {
      "constant": true,
      "inputs": [],
      "name": "name",
      "outputs": [
        {
          "internalType": "string",
          "name": "",
          "type": "string"
        }
      ],
      "payable": false,
      "stateMutability": "view",
      "type": "function"
    },
    {
      "constant": true,
      "inputs": [
        {
          "internalType": "uint256",
          "name": "",
          "type": "uint256"
        }
      ],
      "name": "nfts",
      "outputs": [
        {
          "internalType": "uint256",
          "name": "id",
          "type": "uint256"
        },
        {
          "internalType": "string",
          "name": "hash",
          "type": "string"
        },
        {
          "internalType": "string",
          "name": "title",
          "type": "string"
        },
        {
          "internalType": "string",
          "name": "text",
          "type": "string"
        },
        {
          "internalType": "string",
          "name": "date",
          "type": "string"
        },
        {
          "internalType": "string",
          "name": "collectionName",
          "type": "string"
        },
        {
          "internalType": "uint256",
          "name": "tipAmount",
          "type": "uint256"
        },
        {
          "internalType": "address payable",
          "name": "author",
          "type": "address"
        }
      ],
      "payable": false,
      "stateMutability": "view",
      "type": "function"
    },
    {
      "constant": true,
      "inputs": [],
      "name": "nomadNftcount",
      "outputs": [
        {
          "internalType": "uint256",
          "name": "",
          "type": "uint256"
        }
      ],
      "payable": false,
      "stateMutability": "view",
      "type": "function"
    },
    {
      "constant": true,
      "inputs": [],
      "name": "timestamp",
      "outputs": [
        {
          "internalType": "uint256",
          "name": "",
          "type": "uint256"
        }
      ],
      "payable": false,
      "stateMutability": "view",
      "type": "function"
    },
    {
      "constant": false,
      "inputs": [
        {
          "internalType": "string",
          "name": "_nftHash",
          "type": "string"
        },
        {
          "internalType": "string",
          "name": "_title",
          "type": "string"
        },
        {
          "internalType": "string",
          "name": "_text",
          "type": "string"
        },
        {
          "internalType": "string",
          "name": "_collectionName",
          "type": "string"
        },
        {
          "internalType": "string",
          "name": "_date",
          "type": "string"
        }
      ],
      "name": "uploadNft",
      "outputs": [],
      "payable": false,
      "stateMutability": "nonpayable",
      "type": "function"
    },
    {
      "constant": false,
      "inputs": [
        {
          "internalType": "uint256",
          "name": "_id",
          "type": "uint256"
        }
      ],
      "name": "payNftOwner",
      "outputs": [],
      "payable": true,
      "stateMutability": "payable",
      "type": "function"
    }
  ],
  "bytecode": "0x60806040526040518060400160405280600981526020017f4e6f6d6164204e4654000000000000000000000000000000000000000000000081525060009080519060200190620000519291906200006f565b504260015560006002553480156200006857600080fd5b506200011e565b828054600181600116156101000203166002900490600052602060002090601f016020900481019282601f10620000b257805160ff1916838001178555620000e3565b82800160010185558215620000e3579182015b82811115620000e2578251825591602001919060010190620000c5565b5b509050620000f29190620000f6565b5090565b6200011b91905b8082111562000117576000816000905550600101620000fd565b5090565b90565b6118cd806200012e6000396000f3fe6080604052600436106100555760003560e01c806306fdde031461005a578063265aa621146100ea578063a4f658f31461038f578063b55a14ae146103bd578063b80777ea146103e8578063c999ba1e14610413575b600080fd5b34801561006657600080fd5b5061006f610737565b6040518080602001828103825283818151815260200191508051906020019080838360005b838110156100af578082015181840152602081019050610094565b50505050905090810190601f1680156100dc5780820380516001836020036101000a031916815260200191505b509250505060405180910390f35b3480156100f657600080fd5b506101236004803603602081101561010d57600080fd5b81019080803590602001909291905050506107d5565b6040518089815260200180602001806020018060200180602001806020018881526020018773ffffffffffffffffffffffffffffffffffffffff1673ffffffffffffffffffffffffffffffffffffffff16815260200186810386528d818151815260200191508051906020019080838360005b838110156101b1578082015181840152602081019050610196565b50505050905090810190601f1680156101de5780820380516001836020036101000a031916815260200191505b5086810385528c818151815260200191508051906020019080838360005b838110156102175780820151818401526020810190506101fc565b50505050905090810190601f1680156102445780820380516001836020036101000a031916815260200191505b5086810384528b818151815260200191508051906020019080838360005b8381101561027d578082015181840152602081019050610262565b50505050905090810190601f1680156102aa5780820380516001836020036101000a031916815260200191505b5086810383528a818151815260200191508051906020019080838360005b838110156102e35780820151818401526020810190506102c8565b50505050905090810190601f1680156103105780820380516001836020036101000a031916815260200191505b50868103825289818151815260200191508051906020019080838360005b8381101561034957808201518184015260208101905061032e565b50505050905090810190601f1680156103765780820380516001836020036101000a031916815260200191505b509d505050505050505050505050505060405180910390f35b6103bb600480360360208110156103a557600080fd5b8101908080359060200190929190505050610b35565b005b3480156103c957600080fd5b506103d2611321565b6040518082815260200191505060405180910390f35b3480156103f457600080fd5b506103fd611327565b6040518082815260200191505060405180910390f35b34801561041f57600080fd5b50610735600480360360a081101561043657600080fd5b810190808035906020019064010000000081111561045357600080fd5b82018360208201111561046557600080fd5b8035906020019184600183028401116401000000008311171561048757600080fd5b91908080601f016020809104026020016040519081016040528093929190818152602001838380828437600081840152601f19601f820116905080830192505050505050509192919290803590602001906401000000008111156104ea57600080fd5b8201836020820111156104fc57600080fd5b8035906020019184600183028401116401000000008311171561051e57600080fd5b91908080601f016020809104026020016040519081016040528093929190818152602001838380828437600081840152601f19601f8201169050808301925050505050505091929192908035906020019064010000000081111561058157600080fd5b82018360208201111561059357600080fd5b803590602001918460018302840111640100000000831117156105b557600080fd5b91908080601f016020809104026020016040519081016040528093929190818152602001838380828437600081840152601f19601f8201169050808301925050505050505091929192908035906020019064010000000081111561061857600080fd5b82018360208201111561062a57600080fd5b8035906020019184600183028401116401000000008311171561064c57600080fd5b91908080601f016020809104026020016040519081016040528093929190818152602001838380828437600081840152601f19601f820116905080830192505050505050509192919290803590602001906401000000008111156106af57600080fd5b8201836020820111156106c157600080fd5b803590602001918460018302840111640100000000831117156106e357600080fd5b91908080601f016020809104026020016040519081016040528093929190818152602001838380828437600081840152601f19601f82011690508083019250505050505050919291929050505061132d565b005b60008054600181600116156101000203166002900480601f0160208091040260200160405190810160405280929190818152602001828054600181600116156101000203166002900480156107cd5780601f106107a2576101008083540402835291602001916107cd565b820191906000526020600020905b8154815290600101906020018083116107b057829003601f168201915b505050505081565b6003602052806000526040600020600091509050806000015490806001018054600181600116156101000203166002900480601f0160208091040260200160405190810160405280929190818152602001828054600181600116156101000203166002900480156108875780601f1061085c57610100808354040283529160200191610887565b820191906000526020600020905b81548152906001019060200180831161086a57829003601f168201915b505050505090806002018054600181600116156101000203166002900480601f0160208091040260200160405190810160405280929190818152602001828054600181600116156101000203166002900480156109255780601f106108fa57610100808354040283529160200191610925565b820191906000526020600020905b81548152906001019060200180831161090857829003601f168201915b505050505090806003018054600181600116156101000203166002900480601f0160208091040260200160405190810160405280929190818152602001828054600181600116156101000203166002900480156109c35780601f10610998576101008083540402835291602001916109c3565b820191906000526020600020905b8154815290600101906020018083116109a657829003601f168201915b505050505090806004018054600181600116156101000203166002900480601f016020809104026020016040519081016040528092919081815260200182805460018160011615610100020316600290048015610a615780601f10610a3657610100808354040283529160200191610a61565b820191906000526020600020905b815481529060010190602001808311610a4457829003601f168201915b505050505090806005018054600181600116156101000203166002900480601f016020809104026020016040519081016040528092919081815260200182805460018160011615610100020316600290048015610aff5780601f10610ad457610100808354040283529160200191610aff565b820191906000526020600020905b815481529060010190602001808311610ae257829003601f168201915b5050505050908060060154908060070160009054906101000a900473ffffffffffffffffffffffffffffffffffffffff16905088565b600081118015610b4757506002548111155b610b5057600080fd5b610b58611798565b600360008381526020019081526020016000206040518061010001604052908160008201548152602001600182018054600181600116156101000203166002900480601f016020809104026020016040519081016040528092919081815260200182805460018160011615610100020316600290048015610c1a5780601f10610bef57610100808354040283529160200191610c1a565b820191906000526020600020905b815481529060010190602001808311610bfd57829003601f168201915b50505050508152602001600282018054600181600116156101000203166002900480601f016020809104026020016040519081016040528092919081815260200182805460018160011615610100020316600290048015610cbc5780601f10610c9157610100808354040283529160200191610cbc565b820191906000526020600020905b815481529060010190602001808311610c9f57829003601f168201915b50505050508152602001600382018054600181600116156101000203166002900480601f016020809104026020016040519081016040528092919081815260200182805460018160011615610100020316600290048015610d5e5780601f10610d3357610100808354040283529160200191610d5e565b820191906000526020600020905b815481529060010190602001808311610d4157829003601f168201915b50505050508152602001600482018054600181600116156101000203166002900480601f016020809104026020016040519081016040528092919081815260200182805460018160011615610100020316600290048015610e005780601f10610dd557610100808354040283529160200191610e00565b820191906000526020600020905b815481529060010190602001808311610de357829003601f168201915b50505050508152602001600582018054600181600116156101000203166002900480601f016020809104026020016040519081016040528092919081815260200182805460018160011615610100020316600290048015610ea25780601f10610e7757610100808354040283529160200191610ea2565b820191906000526020600020905b815481529060010190602001808311610e8557829003601f168201915b50505050508152602001600682015481526020016007820160009054906101000a900473ffffffffffffffffffffffffffffffffffffffff1673ffffffffffffffffffffffffffffffffffffffff1673ffffffffffffffffffffffffffffffffffffffff1681525050905060008160e0015190508073ffffffffffffffffffffffffffffffffffffffff166108fc349081150290604051600060405180830381858888f19350505050158015610f5c573d6000803e3d6000fd5b50348260c00151018260c00181815250508160036000858152602001908152602001600020600082015181600001556020820151816001019080519060200190610fa79291906117f3565b506040820151816002019080519060200190610fc49291906117f3565b506060820151816003019080519060200190610fe19291906117f3565b506080820151816004019080519060200190610ffe9291906117f3565b5060a082015181600501908051906020019061101b9291906117f3565b5060c0820151816006015560e08201518160070160006101000a81548173ffffffffffffffffffffffffffffffffffffffff021916908373ffffffffffffffffffffffffffffffffffffffff1602179055509050507f1db28a35c185ec5925e1458c6f298d8d62777eca426ab1037f726b13c21abb708383602001518460400151856060015186608001518760a001518860c00151886040518089815260200180602001806020018060200180602001806020018881526020018773ffffffffffffffffffffffffffffffffffffffff1673ffffffffffffffffffffffffffffffffffffffff16815260200186810386528d818151815260200191508051906020019080838360005b8381101561113f578082015181840152602081019050611124565b50505050905090810190601f16801561116c5780820380516001836020036101000a031916815260200191505b5086810385528c818151815260200191508051906020019080838360005b838110156111a557808201518184015260208101905061118a565b50505050905090810190601f1680156111d25780820380516001836020036101000a031916815260200191505b5086810384528b818151815260200191508051906020019080838360005b8381101561120b5780820151818401526020810190506111f0565b50505050905090810190601f1680156112385780820380516001836020036101000a031916815260200191505b5086810383528a818151815260200191508051906020019080838360005b83811015611271578082015181840152602081019050611256565b50505050905090810190601f16801561129e5780820380516001836020036101000a031916815260200191505b50868103825289818151815260200191508051906020019080838360005b838110156112d75780820151818401526020810190506112bc565b50505050905090810190601f1680156113045780820380516001836020036101000a031916815260200191505b509d505050505050505050505050505060405180910390a1505050565b60025481565b60015481565b600085511161133b57600080fd5b600083511161134957600080fd5b600084511161135757600080fd5b600073ffffffffffffffffffffffffffffffffffffffff163373ffffffffffffffffffffffffffffffffffffffff16141561139157600080fd5b6002600081548092919060010191905055506040518061010001604052806002548152602001868152602001858152602001848152602001828152602001838152602001600081526020013373ffffffffffffffffffffffffffffffffffffffff168152506003600060025481526020019081526020016000206000820151816000015560208201518160010190805190602001906114319291906117f3565b50604082015181600201908051906020019061144e9291906117f3565b50606082015181600301908051906020019061146b9291906117f3565b5060808201518160040190805190602001906114889291906117f3565b5060a08201518160050190805190602001906114a59291906117f3565b5060c0820151816006015560e08201518160070160006101000a81548173ffffffffffffffffffffffffffffffffffffffff021916908373ffffffffffffffffffffffffffffffffffffffff1602179055509050507fb7f17eb6fe44aa835d93682038d7cbf9675972562927d604f5848b41ad415b8b60025486868685876000336040518089815260200180602001806020018060200180602001806020018881526020018773ffffffffffffffffffffffffffffffffffffffff1673ffffffffffffffffffffffffffffffffffffffff16815260200186810386528d818151815260200191508051906020019080838360005b838110156115b4578082015181840152602081019050611599565b50505050905090810190601f1680156115e15780820380516001836020036101000a031916815260200191505b5086810385528c818151815260200191508051906020019080838360005b8381101561161a5780820151818401526020810190506115ff565b50505050905090810190601f1680156116475780820380516001836020036101000a031916815260200191505b5086810384528b818151815260200191508051906020019080838360005b83811015611680578082015181840152602081019050611665565b50505050905090810190601f1680156116ad5780820380516001836020036101000a031916815260200191505b5086810383528a818151815260200191508051906020019080838360005b838110156116e65780820151818401526020810190506116cb565b50505050905090810190601f1680156117135780820380516001836020036101000a031916815260200191505b50868103825289818151815260200191508051906020019080838360005b8381101561174c578082015181840152602081019050611731565b50505050905090810190601f1680156117795780820380516001836020036101000a031916815260200191505b509d505050505050505050505050505060405180910390a15050505050565b60405180610100016040528060008152602001606081526020016060815260200160608152602001606081526020016060815260200160008152602001600073ffffffffffffffffffffffffffffffffffffffff1681525090565b828054600181600116156101000203166002900490600052602060002090601f016020900481019282601f1061183457805160ff1916838001178555611862565b82800160010185558215611862579182015b82811115611861578251825591602001919060010190611846565b5b50905061186f9190611873565b5090565b61189591905b80821115611891576000816000905550600101611879565b5090565b9056fea265627a7a723158204b2c739257afc4efa8f773daf10403b1d27665b2d313f432aceb09859a528cb064736f6c63430005100032",
  "source": "pragma solidity ^0.5.0;\n\ncontract NomadNft {\n    // Code goes here...\n\n    string public name = \"Nomad NFT\";\n\n    // TO GO ON NOMAD NFT IF NEEDED {\n    uint256 public timestamp = block.timestamp;\n    // uint timestamp;\n    // }\n\n    // Store NFT's\n\n    uint256 public nomadNftcount = 0;\n\n    mapping(uint256 => Nft) public nfts;\n\n    struct Nft {\n        uint256 id;\n        string hash;\n        string title;\n        string text;\n        string date;\n        string collectionName;\n        uint256 tipAmount;\n        address payable author;\n    }\n\n    event NftCreated(\n        uint256 id,\n        string hash,\n        string title,\n        string text,\n        string date,\n        string collectionName,\n        uint256 tipAmount,\n        address payable author\n    );\n\n    event NftBought(\n        uint256 id,\n        string hash,\n        string title,\n        string text,\n        string date,\n        string collectionName,\n        uint256 tipAmount,\n        address payable author\n    );\n\n    // CREATE NFT\n    function uploadNft(\n        string memory _nftHash,\n        string memory _title,\n        string memory _text,\n        string memory _collectionName,\n        string memory _date\n    ) public {\n        //ENSURE THAT NFT HASH EXISTS\n        require(bytes(_nftHash).length > 0);\n\n        // ENSURE THAT NFT DESCRIPTION EXISTS\n        require(bytes(_text).length > 0);\n        // ENSURE THAT NFT TITLE EXIST\n\n        require(bytes(_title).length > 0);\n\n        // ENSURE THAT UPLOADER ADDRESS ALREADY EXISTS\n        require(msg.sender != address(0));\n\n        // INCREMENT NFT ID\n        nomadNftcount++;\n\n        // ADD NFT TO CONTRACT\n        nfts[nomadNftcount] = Nft(\n            nomadNftcount,\n            _nftHash,\n            _title,\n            _text,\n            _date,\n            _collectionName,\n            0,\n            msg.sender\n        );\n\n        // TRIGGER ON EVENT\n        emit NftCreated(\n            nomadNftcount,\n            _nftHash,\n            _title,\n            _text,\n            _date,\n            _collectionName,\n            0,\n            msg.sender\n        );\n    }\n\n    // PAY NFT OWNER\n\n    function payNftOwner(uint256 _id) public payable {\n        //MAKE SURE ID IS VALID\n        require(_id > 0 && _id <= nomadNftcount);\n\n        //FETCH NFT's\n        Nft memory _nft = nfts[_id];\n\n        //FETCH THE AUTHOR\n\n        address payable _author = _nft.author;\n\n        //PAY THE AUTHOR BY SENDING THEM ETHER\n\n        address(_author).transfer(msg.value);\n\n        //INCREMENT THE NFT PRICE  AMOUNT\n\n        _nft.tipAmount = _nft.tipAmount + msg.value;\n\n        //UPDATE THE NFT\n\n        nfts[_id] = _nft;\n\n        //TRIGGER AN EVENT\n        emit NftBought(\n            _id,\n            _nft.hash,\n            _nft.title,\n            _nft.text,\n            _nft.date,\n            _nft.collectionName,\n            _nft.tipAmount,\n            _author\n        );\n\n        // emit ScriptureTipped(_id, hash, title, text, tipAmount, author);x\n    }\n}\n",
  "sourcePath": "/Users/eddieruiz/Desktop/AInomads/ReactTemplate/themeforest-rarDvJrJ-imroz-react-agency-portfolio-template/imroz/src/contracts/NomadNft.sol",
  "compiler": {
    "name": "solc",
    "version": "0.5.16+commit.9c3226ce.Emscripten.clang"
  },
  "schemaVersion": "3.2.3",
  "updatedAt": "2021-05-18T21:10:58.079Z",
  "networkType": "ethereum",
  "devdoc": {
    "methods": {}
  },
  "userdoc": {
    "methods": {}
  }
}